:020000020000FC
:080000000C9422000C94560040
:100040000C944D000FEF0DBF08E00EBF389A01E091
:100050000AB9209A03E005BD02E000936900F89414
:1000600001E005B930E006D00DD03030F1F330E0DA
:100070000C942F0001E00BB906E00A95F1F700E0BF
:100080000BB9089501E019B11470E9F316EE16BD2D
:1000900000936E000DBB7894089500E005B900E070
:1000A00008B901E005BB0CBB31E0189500E005B9CB
:0C00B00001E008B905BB0CBB31E018955D
:00000001FF
