:020000020000FC
:040000000C942C0030
:040034000C9499008F
:100054000C947D000FEF0DBF08E00EBF429A389A52
:10006400399A06EC04B904E405B94AE050E030E0FA
:1000740000E0009364000FEC00937A0002E2009326
:100084007C0030E078943030F1F3503089F30E94F2
:100094004E0050E00C943A0060E002E000938100CE
:1000A40001E000936F0070E0603039F0613029F0B6
:1000B400623041F0633059F008950E946E006395F8
:1000C4000C944F000E94730063950C944F000E949F
:1000D400780063950C944F0002E805B97030F1F391
:1000E400089502E405B97030F1F3089504E405B904
:1000F4007030F1F30895009178001091790016950D
:1001040016951695169516951695113024F001E05E
:1001140008B90C949700403019F04A950C94970054
:1001240000E008B951E00C94970031E0189571E0B3
:0601340001E006BB189576
:00000001FF
