:020000020000FC
:040000000C942C0030
:040034000C94A40084
:040040000C94A90073
:100054000C9488000FEF0DBF08E00EBF429A389A47
:10006400399A06EC04B904E405B94AE050E030E0FA
:1000740000E0009364000FEC00937A0002E2009326
:100084007C0030E078943030F1F3503089F30E94F2
:100094004E0050E00C943A003F934F935F9360E01E
:1000A40005E005BD01E000936E0002E000938100CD
:1000B40001E000936F0070E0603051F0613041F076
:1000C400623059F0633071F05F914F913F91089520
:1000D4000E94790063950C9457000E947E006395FA
:1000E4000C9457000E94830063950C94570002E817
:1000F40005B97030F1F3089502E405B97030F1F3F5
:10010400089504E405B97030F1F30895009178007E
:1001140010917900169516951695169516951695BF
:10012400113024F001E008B90C94A200403019F019
:100134004A950C94A20000E008B951E00C94A20086
:1001440031E01895789471E001E006BB1895789435
:08015400319A01E005BB18958A
:00000001FF
