:020000020000FC
:040000000C942C0030
:040034000C94A70081
:040040000C94AC0070
:100054000C948B000FEF0DBF08E00EBF429A389A44
:10006400399A06EC04B904E405B94AE050E030E0FA
:1000740000E0009364000FEC00937A0002E2009326
:100084007C0030E078943030F1F3503089F30E94F2
:100094004E0050E00C943A003F934F935F9360E01E
:1000A40005E005BD01E000936E0002E000938100CD
:1000B40001E000936F0070E0603069F0613059F046
:1000C400623071F0633089F000E000936E005F915C
:1000D4004F913F9108950E947C0063950C945700C2
:1000E4000E94810063950C9457000E9486006395DA
:1000F4000C94570002E805B97030F1F3089502E456
:1001040005B97030F1F3089504E405B97030F1F3E2
:10011400089500917800109179001695169516951A
:10012400169516951695113024F001E008B90C9433
:10013400A500403019F04A950C94A50000E008B9D8
:1001440051E00C94A50031E01895789471E001E039
:0E01540006BB18957894319A01E005BB18950A
:00000001FF
